{
	"contracts/2_DecentralizedBank.sol": {
		"AddressWallets": {
			"abi": [
				{
					"inputs": [],
					"stateMutability": "payable",
					"type": "constructor"
				},
				{
					"inputs": [
						{
							"internalType": "address payable",
							"name": "wallet",
							"type": "address"
						},
						{
							"internalType": "uint256",
							"name": "amount",
							"type": "uint256"
						}
					],
					"name": "addInvestors",
					"outputs": [],
					"stateMutability": "nonpayable",
					"type": "function"
				},
				{
					"inputs": [],
					"name": "checkInvestors",
					"outputs": [
						{
							"internalType": "uint256",
							"name": "",
							"type": "uint256"
						}
					],
					"stateMutability": "view",
					"type": "function"
				},
				{
					"inputs": [],
					"name": "makePayment",
					"outputs": [],
					"stateMutability": "nonpayable",
					"type": "function"
				}
			],
			"devdoc": {
				"kind": "dev",
				"methods": {},
				"version": 1
			},
			"evm": {
				"assembly": "    /* \"contracts/2_DecentralizedBank.sol\":155:929  contract AddressWallets {\r... */\n  mstore(0x40, 0x80)\n    /* \"contracts/2_DecentralizedBank.sol\":308:317  msg.value */\n  callvalue\n    /* \"contracts/2_DecentralizedBank.sol\":293:305  payableValue */\n  0x00\n    /* \"contracts/2_DecentralizedBank.sol\":293:317  payableValue = msg.value */\n  dup2\n  swap1\n  sstore\n  pop\n    /* \"contracts/2_DecentralizedBank.sol\":155:929  contract AddressWallets {\r... */\n  dataSize(sub_0)\n  dup1\n  dataOffset(sub_0)\n  0x00\n  codecopy\n  0x00\n  return\nstop\n\nsub_0: assembly {\n        /* \"contracts/2_DecentralizedBank.sol\":155:929  contract AddressWallets {\r... */\n      mstore(0x40, 0x80)\n      callvalue\n      dup1\n      iszero\n      tag_1\n      jumpi\n      0x00\n      dup1\n      revert\n    tag_1:\n      pop\n      jumpi(tag_2, lt(calldatasize, 0x04))\n      shr(0xe0, calldataload(0x00))\n      dup1\n      0x26997e2c\n      eq\n      tag_3\n      jumpi\n      dup1\n      0x284c9f9f\n      eq\n      tag_4\n      jumpi\n      dup1\n      0xd8d79700\n      eq\n      tag_5\n      jumpi\n    tag_2:\n      0x00\n      dup1\n      revert\n        /* \"contracts/2_DecentralizedBank.sol\":552:659  function checkInvestors() public view returns (uint) \r... */\n    tag_3:\n      tag_6\n      tag_7\n      jump\t// in\n    tag_6:\n      mload(0x40)\n      tag_8\n      swap2\n      swap1\n      tag_9\n      jump\t// in\n    tag_8:\n      mload(0x40)\n      dup1\n      swap2\n      sub\n      swap1\n      return\n        /* \"contracts/2_DecentralizedBank.sol\":384:540  function addInvestors(address payable wallet, uint amount) public \r... */\n    tag_4:\n      tag_10\n      0x04\n      dup1\n      calldatasize\n      sub\n      dup2\n      add\n      swap1\n      tag_11\n      swap2\n      swap1\n      tag_12\n      jump\t// in\n    tag_11:\n      tag_13\n      jump\t// in\n    tag_10:\n      stop\n        /* \"contracts/2_DecentralizedBank.sol\":868:926  function makePayment() public {\r... */\n    tag_5:\n      tag_14\n      tag_15\n      jump\t// in\n    tag_14:\n      stop\n        /* \"contracts/2_DecentralizedBank.sol\":552:659  function checkInvestors() public view returns (uint) \r... */\n    tag_7:\n        /* \"contracts/2_DecentralizedBank.sol\":599:603  uint */\n      0x00\n        /* \"contracts/2_DecentralizedBank.sol\":629:644  investorWallets */\n      0x01\n        /* \"contracts/2_DecentralizedBank.sol\":629:651  investorWallets.length */\n      dup1\n      sload\n      swap1\n      pop\n        /* \"contracts/2_DecentralizedBank.sol\":622:651  return investorWallets.length */\n      swap1\n      pop\n        /* \"contracts/2_DecentralizedBank.sol\":552:659  function checkInvestors() public view returns (uint) \r... */\n      swap1\n      jump\t// out\n        /* \"contracts/2_DecentralizedBank.sol\":384:540  function addInvestors(address payable wallet, uint amount) public \r... */\n    tag_13:\n        /* \"contracts/2_DecentralizedBank.sol\":467:482  investorWallets */\n      0x01\n        /* \"contracts/2_DecentralizedBank.sol\":488:494  wallet */\n      dup3\n        /* \"contracts/2_DecentralizedBank.sol\":467:495  investorWallets.push(wallet) */\n      swap1\n      dup1\n      0x01\n      dup2\n      sload\n      add\n      dup1\n      dup3\n      sstore\n      dup1\n      swap2\n      pop\n      pop\n      0x01\n      swap1\n      sub\n      swap1\n      0x00\n      mstore\n      keccak256(0x00, 0x20)\n      add\n      0x00\n      swap1\n      swap2\n      swap1\n      swap2\n      swap1\n      swap2\n      0x0100\n      exp\n      dup2\n      sload\n      dup2\n      0xffffffffffffffffffffffffffffffffffffffff\n      mul\n      not\n      and\n      swap1\n      dup4\n      0xffffffffffffffffffffffffffffffffffffffff\n      and\n      mul\n      or\n      swap1\n      sstore\n      pop\n        /* \"contracts/2_DecentralizedBank.sol\":526:532  amount */\n      dup1\n        /* \"contracts/2_DecentralizedBank.sol\":506:515  investors */\n      0x02\n        /* \"contracts/2_DecentralizedBank.sol\":506:523  investors[wallet] */\n      0x00\n        /* \"contracts/2_DecentralizedBank.sol\":516:522  wallet */\n      dup5\n        /* \"contracts/2_DecentralizedBank.sol\":506:523  investors[wallet] */\n      0xffffffffffffffffffffffffffffffffffffffff\n      and\n      0xffffffffffffffffffffffffffffffffffffffff\n      and\n      dup2\n      mstore\n      0x20\n      add\n      swap1\n      dup2\n      mstore\n      0x20\n      add\n      0x00\n      keccak256\n        /* \"contracts/2_DecentralizedBank.sol\":506:532  investors[wallet] = amount */\n      dup2\n      swap1\n      sstore\n      pop\n        /* \"contracts/2_DecentralizedBank.sol\":384:540  function addInvestors(address payable wallet, uint amount) public \r... */\n      pop\n      pop\n      jump\t// out\n        /* \"contracts/2_DecentralizedBank.sol\":868:926  function makePayment() public {\r... */\n    tag_15:\n        /* \"contracts/2_DecentralizedBank.sol\":910:918  payout() */\n      tag_20\n        /* \"contracts/2_DecentralizedBank.sol\":910:916  payout */\n      tag_21\n        /* \"contracts/2_DecentralizedBank.sol\":910:918  payout() */\n      jump\t// in\n    tag_20:\n        /* \"contracts/2_DecentralizedBank.sol\":868:926  function makePayment() public {\r... */\n      jump\t// out\n        /* \"contracts/2_DecentralizedBank.sol\":667:860  function payout() private\r... */\n    tag_21:\n        /* \"contracts/2_DecentralizedBank.sol\":714:720  uint i */\n      0x00\n        /* \"contracts/2_DecentralizedBank.sol\":709:853  for (uint i = 0; i < investorWallets.length; i++)\r... */\n    tag_23:\n        /* \"contracts/2_DecentralizedBank.sol\":730:745  investorWallets */\n      0x01\n        /* \"contracts/2_DecentralizedBank.sol\":730:752  investorWallets.length */\n      dup1\n      sload\n      swap1\n      pop\n        /* \"contracts/2_DecentralizedBank.sol\":726:727  i */\n      dup2\n        /* \"contracts/2_DecentralizedBank.sol\":726:752  i < investorWallets.length */\n      lt\n        /* \"contracts/2_DecentralizedBank.sol\":709:853  for (uint i = 0; i < investorWallets.length; i++)\r... */\n      iszero\n      tag_24\n      jumpi\n        /* \"contracts/2_DecentralizedBank.sol\":783:798  investorWallets */\n      0x01\n        /* \"contracts/2_DecentralizedBank.sol\":799:800  i */\n      dup2\n        /* \"contracts/2_DecentralizedBank.sol\":783:801  investorWallets[i] */\n      dup2\n      sload\n      dup2\n      lt\n      tag_26\n      jumpi\n      tag_27\n      tag_28\n      jump\t// in\n    tag_27:\n    tag_26:\n      swap1\n      0x00\n      mstore\n      keccak256(0x00, 0x20)\n      add\n      0x00\n      swap1\n      sload\n      swap1\n      0x0100\n      exp\n      swap1\n      div\n      0xffffffffffffffffffffffffffffffffffffffff\n      and\n        /* \"contracts/2_DecentralizedBank.sol\":783:810  investorWallets[i].transfer */\n      0xffffffffffffffffffffffffffffffffffffffff\n      and\n        /* \"contracts/2_DecentralizedBank.sol\":783:841  investorWallets[i].transfer(investors[investorWallets[i]]) */\n      0x08fc\n        /* \"contracts/2_DecentralizedBank.sol\":811:820  investors */\n      0x02\n        /* \"contracts/2_DecentralizedBank.sol\":811:840  investors[investorWallets[i]] */\n      0x00\n        /* \"contracts/2_DecentralizedBank.sol\":821:836  investorWallets */\n      0x01\n        /* \"contracts/2_DecentralizedBank.sol\":837:838  i */\n      dup6\n        /* \"contracts/2_DecentralizedBank.sol\":821:839  investorWallets[i] */\n      dup2\n      sload\n      dup2\n      lt\n      tag_30\n      jumpi\n      tag_31\n      tag_28\n      jump\t// in\n    tag_31:\n    tag_30:\n      swap1\n      0x00\n      mstore\n      keccak256(0x00, 0x20)\n      add\n      0x00\n      swap1\n      sload\n      swap1\n      0x0100\n      exp\n      swap1\n      div\n      0xffffffffffffffffffffffffffffffffffffffff\n      and\n        /* \"contracts/2_DecentralizedBank.sol\":811:840  investors[investorWallets[i]] */\n      0xffffffffffffffffffffffffffffffffffffffff\n      and\n      0xffffffffffffffffffffffffffffffffffffffff\n      and\n      dup2\n      mstore\n      0x20\n      add\n      swap1\n      dup2\n      mstore\n      0x20\n      add\n      0x00\n      keccak256\n      sload\n        /* \"contracts/2_DecentralizedBank.sol\":783:841  investorWallets[i].transfer(investors[investorWallets[i]]) */\n      swap1\n      dup2\n      iszero\n      mul\n      swap1\n      mload(0x40)\n      0x00\n      mload(0x40)\n      dup1\n      dup4\n      sub\n      dup2\n      dup6\n      dup9\n      dup9\n      call\n      swap4\n      pop\n      pop\n      pop\n      pop\n      iszero\n      dup1\n      iszero\n      tag_34\n      jumpi\n      returndatasize\n      0x00\n      dup1\n      returndatacopy\n      revert(0x00, returndatasize)\n    tag_34:\n      pop\n        /* \"contracts/2_DecentralizedBank.sol\":754:757  i++ */\n      dup1\n      dup1\n      tag_35\n      swap1\n      tag_36\n      jump\t// in\n    tag_35:\n      swap2\n      pop\n      pop\n        /* \"contracts/2_DecentralizedBank.sol\":709:853  for (uint i = 0; i < investorWallets.length; i++)\r... */\n      jump(tag_23)\n    tag_24:\n      pop\n        /* \"contracts/2_DecentralizedBank.sol\":667:860  function payout() private\r... */\n      jump\t// out\n        /* \"#utility.yul\":7:162   */\n    tag_38:\n        /* \"#utility.yul\":61:66   */\n      0x00\n        /* \"#utility.yul\":99:105   */\n      dup2\n        /* \"#utility.yul\":86:106   */\n      calldataload\n        /* \"#utility.yul\":77:106   */\n      swap1\n      pop\n        /* \"#utility.yul\":115:156   */\n      tag_40\n        /* \"#utility.yul\":150:155   */\n      dup2\n        /* \"#utility.yul\":115:156   */\n      tag_41\n      jump\t// in\n    tag_40:\n        /* \"#utility.yul\":7:162   */\n      swap3\n      swap2\n      pop\n      pop\n      jump\t// out\n        /* \"#utility.yul\":168:307   */\n    tag_42:\n        /* \"#utility.yul\":214:219   */\n      0x00\n        /* \"#utility.yul\":252:258   */\n      dup2\n        /* \"#utility.yul\":239:259   */\n      calldataload\n        /* \"#utility.yul\":230:259   */\n      swap1\n      pop\n        /* \"#utility.yul\":268:301   */\n      tag_44\n        /* \"#utility.yul\":295:300   */\n      dup2\n        /* \"#utility.yul\":268:301   */\n      tag_45\n      jump\t// in\n    tag_44:\n        /* \"#utility.yul\":168:307   */\n      swap3\n      swap2\n      pop\n      pop\n      jump\t// out\n        /* \"#utility.yul\":313:803   */\n    tag_12:\n        /* \"#utility.yul\":389:395   */\n      0x00\n        /* \"#utility.yul\":397:403   */\n      dup1\n        /* \"#utility.yul\":446:448   */\n      0x40\n        /* \"#utility.yul\":434:443   */\n      dup4\n        /* \"#utility.yul\":425:432   */\n      dup6\n        /* \"#utility.yul\":421:444   */\n      sub\n        /* \"#utility.yul\":417:449   */\n      slt\n        /* \"#utility.yul\":414:533   */\n      iszero\n      tag_47\n      jumpi\n        /* \"#utility.yul\":452:531   */\n      tag_48\n      tag_49\n      jump\t// in\n    tag_48:\n        /* \"#utility.yul\":414:533   */\n    tag_47:\n        /* \"#utility.yul\":572:573   */\n      0x00\n        /* \"#utility.yul\":597:658   */\n      tag_50\n        /* \"#utility.yul\":650:657   */\n      dup6\n        /* \"#utility.yul\":641:647   */\n      dup3\n        /* \"#utility.yul\":630:639   */\n      dup7\n        /* \"#utility.yul\":626:648   */\n      add\n        /* \"#utility.yul\":597:658   */\n      tag_38\n      jump\t// in\n    tag_50:\n        /* \"#utility.yul\":587:658   */\n      swap3\n      pop\n        /* \"#utility.yul\":543:668   */\n      pop\n        /* \"#utility.yul\":707:709   */\n      0x20\n        /* \"#utility.yul\":733:786   */\n      tag_51\n        /* \"#utility.yul\":778:785   */\n      dup6\n        /* \"#utility.yul\":769:775   */\n      dup3\n        /* \"#utility.yul\":758:767   */\n      dup7\n        /* \"#utility.yul\":754:776   */\n      add\n        /* \"#utility.yul\":733:786   */\n      tag_42\n      jump\t// in\n    tag_51:\n        /* \"#utility.yul\":723:786   */\n      swap2\n      pop\n        /* \"#utility.yul\":678:796   */\n      pop\n        /* \"#utility.yul\":313:803   */\n      swap3\n      pop\n      swap3\n      swap1\n      pop\n      jump\t// out\n        /* \"#utility.yul\":809:927   */\n    tag_52:\n        /* \"#utility.yul\":896:920   */\n      tag_54\n        /* \"#utility.yul\":914:919   */\n      dup2\n        /* \"#utility.yul\":896:920   */\n      tag_55\n      jump\t// in\n    tag_54:\n        /* \"#utility.yul\":891:894   */\n      dup3\n        /* \"#utility.yul\":884:921   */\n      mstore\n        /* \"#utility.yul\":809:927   */\n      pop\n      pop\n      jump\t// out\n        /* \"#utility.yul\":933:1155   */\n    tag_9:\n        /* \"#utility.yul\":1026:1030   */\n      0x00\n        /* \"#utility.yul\":1064:1066   */\n      0x20\n        /* \"#utility.yul\":1053:1062   */\n      dup3\n        /* \"#utility.yul\":1049:1067   */\n      add\n        /* \"#utility.yul\":1041:1067   */\n      swap1\n      pop\n        /* \"#utility.yul\":1077:1148   */\n      tag_57\n        /* \"#utility.yul\":1145:1146   */\n      0x00\n        /* \"#utility.yul\":1134:1143   */\n      dup4\n        /* \"#utility.yul\":1130:1147   */\n      add\n        /* \"#utility.yul\":1121:1127   */\n      dup5\n        /* \"#utility.yul\":1077:1148   */\n      tag_52\n      jump\t// in\n    tag_57:\n        /* \"#utility.yul\":933:1155   */\n      swap3\n      swap2\n      pop\n      pop\n      jump\t// out\n        /* \"#utility.yul\":1242:1346   */\n    tag_60:\n        /* \"#utility.yul\":1287:1294   */\n      0x00\n        /* \"#utility.yul\":1316:1340   */\n      tag_62\n        /* \"#utility.yul\":1334:1339   */\n      dup3\n        /* \"#utility.yul\":1316:1340   */\n      tag_63\n      jump\t// in\n    tag_62:\n        /* \"#utility.yul\":1305:1340   */\n      swap1\n      pop\n        /* \"#utility.yul\":1242:1346   */\n      swap2\n      swap1\n      pop\n      jump\t// out\n        /* \"#utility.yul\":1352:1478   */\n    tag_63:\n        /* \"#utility.yul\":1389:1396   */\n      0x00\n        /* \"#utility.yul\":1429:1471   */\n      0xffffffffffffffffffffffffffffffffffffffff\n        /* \"#utility.yul\":1422:1427   */\n      dup3\n        /* \"#utility.yul\":1418:1472   */\n      and\n        /* \"#utility.yul\":1407:1472   */\n      swap1\n      pop\n        /* \"#utility.yul\":1352:1478   */\n      swap2\n      swap1\n      pop\n      jump\t// out\n        /* \"#utility.yul\":1484:1561   */\n    tag_55:\n        /* \"#utility.yul\":1521:1528   */\n      0x00\n        /* \"#utility.yul\":1550:1555   */\n      dup2\n        /* \"#utility.yul\":1539:1555   */\n      swap1\n      pop\n        /* \"#utility.yul\":1484:1561   */\n      swap2\n      swap1\n      pop\n      jump\t// out\n        /* \"#utility.yul\":1567:1800   */\n    tag_36:\n        /* \"#utility.yul\":1606:1609   */\n      0x00\n        /* \"#utility.yul\":1629:1653   */\n      tag_67\n        /* \"#utility.yul\":1647:1652   */\n      dup3\n        /* \"#utility.yul\":1629:1653   */\n      tag_55\n      jump\t// in\n    tag_67:\n        /* \"#utility.yul\":1620:1653   */\n      swap2\n      pop\n        /* \"#utility.yul\":1675:1741   */\n      0xffffffffffffffffffffffffffffffffffffffffffffffffffffffffffffffff\n        /* \"#utility.yul\":1668:1673   */\n      dup3\n        /* \"#utility.yul\":1665:1742   */\n      eq\n        /* \"#utility.yul\":1662:1765   */\n      iszero\n      tag_68\n      jumpi\n        /* \"#utility.yul\":1745:1763   */\n      tag_69\n      tag_70\n      jump\t// in\n    tag_69:\n        /* \"#utility.yul\":1662:1765   */\n    tag_68:\n        /* \"#utility.yul\":1792:1793   */\n      0x01\n        /* \"#utility.yul\":1785:1790   */\n      dup3\n        /* \"#utility.yul\":1781:1794   */\n      add\n        /* \"#utility.yul\":1774:1794   */\n      swap1\n      pop\n        /* \"#utility.yul\":1567:1800   */\n      swap2\n      swap1\n      pop\n      jump\t// out\n        /* \"#utility.yul\":1806:1986   */\n    tag_70:\n        /* \"#utility.yul\":1854:1931   */\n      0x4e487b7100000000000000000000000000000000000000000000000000000000\n        /* \"#utility.yul\":1851:1852   */\n      0x00\n        /* \"#utility.yul\":1844:1932   */\n      mstore\n        /* \"#utility.yul\":1951:1955   */\n      0x11\n        /* \"#utility.yul\":1948:1949   */\n      0x04\n        /* \"#utility.yul\":1941:1956   */\n      mstore\n        /* \"#utility.yul\":1975:1979   */\n      0x24\n        /* \"#utility.yul\":1972:1973   */\n      0x00\n        /* \"#utility.yul\":1965:1980   */\n      revert\n        /* \"#utility.yul\":1992:2172   */\n    tag_28:\n        /* \"#utility.yul\":2040:2117   */\n      0x4e487b7100000000000000000000000000000000000000000000000000000000\n        /* \"#utility.yul\":2037:2038   */\n      0x00\n        /* \"#utility.yul\":2030:2118   */\n      mstore\n        /* \"#utility.yul\":2137:2141   */\n      0x32\n        /* \"#utility.yul\":2134:2135   */\n      0x04\n        /* \"#utility.yul\":2127:2142   */\n      mstore\n        /* \"#utility.yul\":2161:2165   */\n      0x24\n        /* \"#utility.yul\":2158:2159   */\n      0x00\n        /* \"#utility.yul\":2151:2166   */\n      revert\n        /* \"#utility.yul\":2301:2418   */\n    tag_49:\n        /* \"#utility.yul\":2410:2411   */\n      0x00\n        /* \"#utility.yul\":2407:2408   */\n      dup1\n        /* \"#utility.yul\":2400:2412   */\n      revert\n        /* \"#utility.yul\":2424:2562   */\n    tag_41:\n        /* \"#utility.yul\":2505:2537   */\n      tag_77\n        /* \"#utility.yul\":2531:2536   */\n      dup2\n        /* \"#utility.yul\":2505:2537   */\n      tag_60\n      jump\t// in\n    tag_77:\n        /* \"#utility.yul\":2498:2503   */\n      dup2\n        /* \"#utility.yul\":2495:2538   */\n      eq\n        /* \"#utility.yul\":2485:2556   */\n      tag_78\n      jumpi\n        /* \"#utility.yul\":2552:2553   */\n      0x00\n        /* \"#utility.yul\":2549:2550   */\n      dup1\n        /* \"#utility.yul\":2542:2554   */\n      revert\n        /* \"#utility.yul\":2485:2556   */\n    tag_78:\n        /* \"#utility.yul\":2424:2562   */\n      pop\n      jump\t// out\n        /* \"#utility.yul\":2568:2690   */\n    tag_45:\n        /* \"#utility.yul\":2641:2665   */\n      tag_80\n        /* \"#utility.yul\":2659:2664   */\n      dup2\n        /* \"#utility.yul\":2641:2665   */\n      tag_55\n      jump\t// in\n    tag_80:\n        /* \"#utility.yul\":2634:2639   */\n      dup2\n        /* \"#utility.yul\":2631:2666   */\n      eq\n        /* \"#utility.yul\":2621:2684   */\n      tag_81\n      jumpi\n        /* \"#utility.yul\":2680:2681   */\n      0x00\n        /* \"#utility.yul\":2677:2678   */\n      dup1\n        /* \"#utility.yul\":2670:2682   */\n      revert\n        /* \"#utility.yul\":2621:2684   */\n    tag_81:\n        /* \"#utility.yul\":2568:2690   */\n      pop\n      jump\t// out\n\n    auxdata: 0xa26469706673582212200171975cf124a46a310330e5205b93ba037af16c457a83d4bed8f066819d4e6b64736f6c63430008070033\n}\n",
				"bytecode": {
					"linkReferences": {},
					"object": "6080604052346000819055506104548061001a6000396000f3fe608060405234801561001057600080fd5b50600436106100415760003560e01c806326997e2c14610046578063284c9f9f14610064578063d8d7970014610080575b600080fd5b61004e61008a565b60405161005b91906102ed565b60405180910390f35b61007e6004803603810190610079919061029e565b610097565b005b610088610142565b005b6000600180549050905090565b6001829080600181540180825580915050600190039060005260206000200160009091909190916101000a81548173ffffffffffffffffffffffffffffffffffffffff021916908373ffffffffffffffffffffffffffffffffffffffff16021790555080600260008473ffffffffffffffffffffffffffffffffffffffff1673ffffffffffffffffffffffffffffffffffffffff168152602001908152602001600020819055505050565b61014a61014c565b565b60005b60018054905081101561027157600181815481106101705761016f6103bc565b5b9060005260206000200160009054906101000a900473ffffffffffffffffffffffffffffffffffffffff1673ffffffffffffffffffffffffffffffffffffffff166108fc60026000600185815481106101cc576101cb6103bc565b5b9060005260206000200160009054906101000a900473ffffffffffffffffffffffffffffffffffffffff1673ffffffffffffffffffffffffffffffffffffffff1673ffffffffffffffffffffffffffffffffffffffff168152602001908152602001600020549081150290604051600060405180830381858888f1935050505015801561025d573d6000803e3d6000fd5b50808061026990610344565b91505061014f565b50565b600081359050610283816103f0565b92915050565b60008135905061029881610407565b92915050565b600080604083850312156102b5576102b46103eb565b5b60006102c385828601610274565b92505060206102d485828601610289565b9150509250929050565b6102e78161033a565b82525050565b600060208201905061030260008301846102de565b92915050565b60006103138261031a565b9050919050565b600073ffffffffffffffffffffffffffffffffffffffff82169050919050565b6000819050919050565b600061034f8261033a565b91507fffffffffffffffffffffffffffffffffffffffffffffffffffffffffffffffff8214156103825761038161038d565b5b600182019050919050565b7f4e487b7100000000000000000000000000000000000000000000000000000000600052601160045260246000fd5b7f4e487b7100000000000000000000000000000000000000000000000000000000600052603260045260246000fd5b600080fd5b6103f981610308565b811461040457600080fd5b50565b6104108161033a565b811461041b57600080fd5b5056fea26469706673582212200171975cf124a46a310330e5205b93ba037af16c457a83d4bed8f066819d4e6b64736f6c63430008070033",
					"opcodes": "PUSH1 0x80 PUSH1 0x40 MSTORE CALLVALUE PUSH1 0x0 DUP2 SWAP1 SSTORE POP PUSH2 0x454 DUP1 PUSH2 0x1A PUSH1 0x0 CODECOPY PUSH1 0x0 RETURN INVALID PUSH1 0x80 PUSH1 0x40 MSTORE CALLVALUE DUP1 ISZERO PUSH2 0x10 JUMPI PUSH1 0x0 DUP1 REVERT JUMPDEST POP PUSH1 0x4 CALLDATASIZE LT PUSH2 0x41 JUMPI PUSH1 0x0 CALLDATALOAD PUSH1 0xE0 SHR DUP1 PUSH4 0x26997E2C EQ PUSH2 0x46 JUMPI DUP1 PUSH4 0x284C9F9F EQ PUSH2 0x64 JUMPI DUP1 PUSH4 0xD8D79700 EQ PUSH2 0x80 JUMPI JUMPDEST PUSH1 0x0 DUP1 REVERT JUMPDEST PUSH2 0x4E PUSH2 0x8A JUMP JUMPDEST PUSH1 0x40 MLOAD PUSH2 0x5B SWAP2 SWAP1 PUSH2 0x2ED JUMP JUMPDEST PUSH1 0x40 MLOAD DUP1 SWAP2 SUB SWAP1 RETURN JUMPDEST PUSH2 0x7E PUSH1 0x4 DUP1 CALLDATASIZE SUB DUP2 ADD SWAP1 PUSH2 0x79 SWAP2 SWAP1 PUSH2 0x29E JUMP JUMPDEST PUSH2 0x97 JUMP JUMPDEST STOP JUMPDEST PUSH2 0x88 PUSH2 0x142 JUMP JUMPDEST STOP JUMPDEST PUSH1 0x0 PUSH1 0x1 DUP1 SLOAD SWAP1 POP SWAP1 POP SWAP1 JUMP JUMPDEST PUSH1 0x1 DUP3 SWAP1 DUP1 PUSH1 0x1 DUP2 SLOAD ADD DUP1 DUP3 SSTORE DUP1 SWAP2 POP POP PUSH1 0x1 SWAP1 SUB SWAP1 PUSH1 0x0 MSTORE PUSH1 0x20 PUSH1 0x0 KECCAK256 ADD PUSH1 0x0 SWAP1 SWAP2 SWAP1 SWAP2 SWAP1 SWAP2 PUSH2 0x100 EXP DUP2 SLOAD DUP2 PUSH20 0xFFFFFFFFFFFFFFFFFFFFFFFFFFFFFFFFFFFFFFFF MUL NOT AND SWAP1 DUP4 PUSH20 0xFFFFFFFFFFFFFFFFFFFFFFFFFFFFFFFFFFFFFFFF AND MUL OR SWAP1 SSTORE POP DUP1 PUSH1 0x2 PUSH1 0x0 DUP5 PUSH20 0xFFFFFFFFFFFFFFFFFFFFFFFFFFFFFFFFFFFFFFFF AND PUSH20 0xFFFFFFFFFFFFFFFFFFFFFFFFFFFFFFFFFFFFFFFF AND DUP2 MSTORE PUSH1 0x20 ADD SWAP1 DUP2 MSTORE PUSH1 0x20 ADD PUSH1 0x0 KECCAK256 DUP2 SWAP1 SSTORE POP POP POP JUMP JUMPDEST PUSH2 0x14A PUSH2 0x14C JUMP JUMPDEST JUMP JUMPDEST PUSH1 0x0 JUMPDEST PUSH1 0x1 DUP1 SLOAD SWAP1 POP DUP2 LT ISZERO PUSH2 0x271 JUMPI PUSH1 0x1 DUP2 DUP2 SLOAD DUP2 LT PUSH2 0x170 JUMPI PUSH2 0x16F PUSH2 0x3BC JUMP JUMPDEST JUMPDEST SWAP1 PUSH1 0x0 MSTORE PUSH1 0x20 PUSH1 0x0 KECCAK256 ADD PUSH1 0x0 SWAP1 SLOAD SWAP1 PUSH2 0x100 EXP SWAP1 DIV PUSH20 0xFFFFFFFFFFFFFFFFFFFFFFFFFFFFFFFFFFFFFFFF AND PUSH20 0xFFFFFFFFFFFFFFFFFFFFFFFFFFFFFFFFFFFFFFFF AND PUSH2 0x8FC PUSH1 0x2 PUSH1 0x0 PUSH1 0x1 DUP6 DUP2 SLOAD DUP2 LT PUSH2 0x1CC JUMPI PUSH2 0x1CB PUSH2 0x3BC JUMP JUMPDEST JUMPDEST SWAP1 PUSH1 0x0 MSTORE PUSH1 0x20 PUSH1 0x0 KECCAK256 ADD PUSH1 0x0 SWAP1 SLOAD SWAP1 PUSH2 0x100 EXP SWAP1 DIV PUSH20 0xFFFFFFFFFFFFFFFFFFFFFFFFFFFFFFFFFFFFFFFF AND PUSH20 0xFFFFFFFFFFFFFFFFFFFFFFFFFFFFFFFFFFFFFFFF AND PUSH20 0xFFFFFFFFFFFFFFFFFFFFFFFFFFFFFFFFFFFFFFFF AND DUP2 MSTORE PUSH1 0x20 ADD SWAP1 DUP2 MSTORE PUSH1 0x20 ADD PUSH1 0x0 KECCAK256 SLOAD SWAP1 DUP2 ISZERO MUL SWAP1 PUSH1 0x40 MLOAD PUSH1 0x0 PUSH1 0x40 MLOAD DUP1 DUP4 SUB DUP2 DUP6 DUP9 DUP9 CALL SWAP4 POP POP POP POP ISZERO DUP1 ISZERO PUSH2 0x25D JUMPI RETURNDATASIZE PUSH1 0x0 DUP1 RETURNDATACOPY RETURNDATASIZE PUSH1 0x0 REVERT JUMPDEST POP DUP1 DUP1 PUSH2 0x269 SWAP1 PUSH2 0x344 JUMP JUMPDEST SWAP2 POP POP PUSH2 0x14F JUMP JUMPDEST POP JUMP JUMPDEST PUSH1 0x0 DUP2 CALLDATALOAD SWAP1 POP PUSH2 0x283 DUP2 PUSH2 0x3F0 JUMP JUMPDEST SWAP3 SWAP2 POP POP JUMP JUMPDEST PUSH1 0x0 DUP2 CALLDATALOAD SWAP1 POP PUSH2 0x298 DUP2 PUSH2 0x407 JUMP JUMPDEST SWAP3 SWAP2 POP POP JUMP JUMPDEST PUSH1 0x0 DUP1 PUSH1 0x40 DUP4 DUP6 SUB SLT ISZERO PUSH2 0x2B5 JUMPI PUSH2 0x2B4 PUSH2 0x3EB JUMP JUMPDEST JUMPDEST PUSH1 0x0 PUSH2 0x2C3 DUP6 DUP3 DUP7 ADD PUSH2 0x274 JUMP JUMPDEST SWAP3 POP POP PUSH1 0x20 PUSH2 0x2D4 DUP6 DUP3 DUP7 ADD PUSH2 0x289 JUMP JUMPDEST SWAP2 POP POP SWAP3 POP SWAP3 SWAP1 POP JUMP JUMPDEST PUSH2 0x2E7 DUP2 PUSH2 0x33A JUMP JUMPDEST DUP3 MSTORE POP POP JUMP JUMPDEST PUSH1 0x0 PUSH1 0x20 DUP3 ADD SWAP1 POP PUSH2 0x302 PUSH1 0x0 DUP4 ADD DUP5 PUSH2 0x2DE JUMP JUMPDEST SWAP3 SWAP2 POP POP JUMP JUMPDEST PUSH1 0x0 PUSH2 0x313 DUP3 PUSH2 0x31A JUMP JUMPDEST SWAP1 POP SWAP2 SWAP1 POP JUMP JUMPDEST PUSH1 0x0 PUSH20 0xFFFFFFFFFFFFFFFFFFFFFFFFFFFFFFFFFFFFFFFF DUP3 AND SWAP1 POP SWAP2 SWAP1 POP JUMP JUMPDEST PUSH1 0x0 DUP2 SWAP1 POP SWAP2 SWAP1 POP JUMP JUMPDEST PUSH1 0x0 PUSH2 0x34F DUP3 PUSH2 0x33A JUMP JUMPDEST SWAP2 POP PUSH32 0xFFFFFFFFFFFFFFFFFFFFFFFFFFFFFFFFFFFFFFFFFFFFFFFFFFFFFFFFFFFFFFFF DUP3 EQ ISZERO PUSH2 0x382 JUMPI PUSH2 0x381 PUSH2 0x38D JUMP JUMPDEST JUMPDEST PUSH1 0x1 DUP3 ADD SWAP1 POP SWAP2 SWAP1 POP JUMP JUMPDEST PUSH32 0x4E487B7100000000000000000000000000000000000000000000000000000000 PUSH1 0x0 MSTORE PUSH1 0x11 PUSH1 0x4 MSTORE PUSH1 0x24 PUSH1 0x0 REVERT JUMPDEST PUSH32 0x4E487B7100000000000000000000000000000000000000000000000000000000 PUSH1 0x0 MSTORE PUSH1 0x32 PUSH1 0x4 MSTORE PUSH1 0x24 PUSH1 0x0 REVERT JUMPDEST PUSH1 0x0 DUP1 REVERT JUMPDEST PUSH2 0x3F9 DUP2 PUSH2 0x308 JUMP JUMPDEST DUP2 EQ PUSH2 0x404 JUMPI PUSH1 0x0 DUP1 REVERT JUMPDEST POP JUMP JUMPDEST PUSH2 0x410 DUP2 PUSH2 0x33A JUMP JUMPDEST DUP2 EQ PUSH2 0x41B JUMPI PUSH1 0x0 DUP1 REVERT JUMPDEST POP JUMP INVALID LOG2 PUSH5 0x6970667358 0x22 SLT KECCAK256 ADD PUSH18 0x975CF124A46A310330E5205B93BA037AF16C GASLIMIT PUSH27 0x83D4BED8F066819D4E6B64736F6C63430008070033000000000000 "
				},
				"gasEstimates": {
					"creation": {
						"codeDepositCost": "221600",
						"executionCost": "22352",
						"totalCost": "243952"
					},
					"external": {
						"addInvestors(address,uint256)": "71411",
						"checkInvestors()": "2423",
						"makePayment()": "infinite"
					},
					"internal": {
						"payout()": "infinite"
					}
				},
				"methodIdentifiers": {
					"addInvestors(address,uint256)": "284c9f9f",
					"checkInvestors()": "26997e2c",
					"makePayment()": "d8d79700"
				}
			},
			"storageLayout": {
				"storage": [
					{
						"astId": 3,
						"contract": "contracts/2_DecentralizedBank.sol:AddressWallets",
						"label": "payableValue",
						"offset": 0,
						"slot": "0",
						"type": "t_uint256"
					},
					{
						"astId": 6,
						"contract": "contracts/2_DecentralizedBank.sol:AddressWallets",
						"label": "investorWallets",
						"offset": 0,
						"slot": "1",
						"type": "t_array(t_address_payable)dyn_storage"
					},
					{
						"astId": 19,
						"contract": "contracts/2_DecentralizedBank.sol:AddressWallets",
						"label": "investors",
						"offset": 0,
						"slot": "2",
						"type": "t_mapping(t_address,t_uint256)"
					}
				],
				"types": {
					"t_address": {
						"encoding": "inplace",
						"label": "address",
						"numberOfBytes": "20"
					},
					"t_address_payable": {
						"encoding": "inplace",
						"label": "address payable",
						"numberOfBytes": "20"
					},
					"t_array(t_address_payable)dyn_storage": {
						"base": "t_address_payable",
						"encoding": "dynamic_array",
						"label": "address payable[]",
						"numberOfBytes": "32"
					},
					"t_mapping(t_address,t_uint256)": {
						"encoding": "mapping",
						"key": "t_address",
						"label": "mapping(address => uint256)",
						"numberOfBytes": "32",
						"value": "t_uint256"
					},
					"t_uint256": {
						"encoding": "inplace",
						"label": "uint256",
						"numberOfBytes": "32"
					}
				}
			},
			"userdoc": {
				"kind": "user",
				"methods": {},
				"version": 1
			}
		}
	}
}